:100000000C942A000C9447000C9447000C94470071
:100010000C9447000C9447000C9447000C94470044
:100020000C9447000C9447000C9447000C94470034
:100030000C9447000C9447000C9447000C94470024
:100040000C9447000C9447000C9447000C94470014
:100050000C94470011241FBECFE5D4E0DEBFCDBF16
:1000600010E0A0E6B0E0E2E0F1E002C005900D9201
:10007000A036B107D9F710E0A0E6B0E001C01D92AC
:10008000A036B107E1F70E9449000C947F000C9460
:1000900000001F938FEF84BB88EF8ABB84EC99E04C
:1000A0000197F1F715E06CE574E449E150E028EAC6
:1000B00031E6B9E0A6E089B3823019F415BBCB0173
:1000C0000FC089B3833011F4A5BB09C089B3863052
:1000D00011F4B5BB04C089B3882329F415BAC9014A
:1000E0000197F1F7E8CF89B3873029F715BA80E196
:1000F00097E2FA013197F1F70197D9F7DCCFF8943D
:02010000FFCF2F
:00000001FF
